{
  "_format": "hh-sol-artifact-1",
  "contractName": "P2PExchange",
  "sourceName": "contracts/Exchange.sol",
  "abi": [
    {
      "inputs": [
        {
          "internalType": "address",
          "name": "_wngnAddress",
          "type": "address"
        }
      ],
      "stateMutability": "nonpayable",
      "type": "constructor"
    },
    {
      "inputs": [
        {
          "internalType": "address",
          "name": "target",
          "type": "address"
        }
      ],
      "name": "AddressEmptyCode",
      "type": "error"
    },
    {
      "inputs": [
        {
          "internalType": "address",
          "name": "account",
          "type": "address"
        }
      ],
      "name": "AddressInsufficientBalance",
      "type": "error"
    },
    {
      "inputs": [],
      "name": "FailedInnerCall",
      "type": "error"
    },
    {
      "inputs": [
        {
          "internalType": "address",
          "name": "token",
          "type": "address"
        }
      ],
      "name": "SafeERC20FailedOperation",
      "type": "error"
    },
    {
      "anonymous": false,
      "inputs": [
        {
          "indexed": true,
          "internalType": "uint256",
          "name": "adId",
          "type": "uint256"
        },
        {
          "indexed": false,
          "internalType": "uint256",
          "name": "price",
          "type": "uint256"
        },
        {
          "indexed": false,
          "internalType": "enum P2PExchange.AdType",
          "name": "adType",
          "type": "uint8"
        },
        {
          "indexed": false,
          "internalType": "address",
          "name": "token",
          "type": "address"
        },
        {
          "indexed": false,
          "internalType": "uint256",
          "name": "quantity",
          "type": "uint256"
        },
        {
          "indexed": false,
          "internalType": "uint256",
          "name": "validUntil",
          "type": "uint256"
        },
        {
          "indexed": false,
          "internalType": "address",
          "name": "merchant",
          "type": "address"
        }
      ],
      "name": "AdCreated",
      "type": "event"
    },
    {
      "anonymous": false,
      "inputs": [
        {
          "indexed": true,
          "internalType": "uint256",
          "name": "adId",
          "type": "uint256"
        },
        {
          "indexed": false,
          "internalType": "uint256",
          "name": "amount",
          "type": "uint256"
        },
        {
          "indexed": false,
          "internalType": "address",
          "name": "merchant",
          "type": "address"
        }
      ],
      "name": "FundsWithdrawn",
      "type": "event"
    },
    {
      "anonymous": false,
      "inputs": [
        {
          "indexed": true,
          "internalType": "uint256",
          "name": "adId",
          "type": "uint256"
        },
        {
          "indexed": false,
          "internalType": "uint256",
          "name": "amount",
          "type": "uint256"
        },
        {
          "indexed": false,
          "internalType": "address",
          "name": "buyer",
          "type": "address"
        },
        {
          "indexed": false,
          "internalType": "address",
          "name": "merchant",
          "type": "address"
        }
      ],
      "name": "OrderExecuted",
      "type": "event"
    },
    {
      "inputs": [],
      "name": "adCounter",
      "outputs": [
        {
          "internalType": "uint256",
          "name": "",
          "type": "uint256"
        }
      ],
      "stateMutability": "view",
      "type": "function"
    },
    {
      "inputs": [
        {
          "internalType": "uint256",
          "name": "",
          "type": "uint256"
        }
      ],
      "name": "ads",
      "outputs": [
        {
          "internalType": "uint256",
          "name": "price",
          "type": "uint256"
        },
        {
          "internalType": "enum P2PExchange.AdType",
          "name": "adType",
          "type": "uint8"
        },
        {
          "internalType": "address",
          "name": "token",
          "type": "address"
        },
        {
          "internalType": "address",
          "name": "merchant",
          "type": "address"
        },
        {
          "internalType": "uint256",
          "name": "quantity",
          "type": "uint256"
        },
        {
          "internalType": "uint256",
          "name": "validUntil",
          "type": "uint256"
        }
      ],
      "stateMutability": "view",
      "type": "function"
    },
    {
      "inputs": [
        {
          "internalType": "uint256",
          "name": "_price",
          "type": "uint256"
        },
        {
          "internalType": "enum P2PExchange.AdType",
          "name": "_adType",
          "type": "uint8"
        },
        {
          "internalType": "address",
          "name": "_token",
          "type": "address"
        },
        {
          "internalType": "uint256",
          "name": "_quantity",
          "type": "uint256"
        },
        {
          "internalType": "uint256",
          "name": "_validUntil",
          "type": "uint256"
        }
      ],
      "name": "createAd",
      "outputs": [
        {
          "internalType": "uint256",
          "name": "",
          "type": "uint256"
        }
      ],
      "stateMutability": "payable",
      "type": "function"
    },
    {
      "inputs": [
        {
          "internalType": "uint256",
          "name": "_adId",
          "type": "uint256"
        },
        {
          "internalType": "uint256",
          "name": "_amount",
          "type": "uint256"
        }
      ],
      "name": "executeAd",
      "outputs": [],
      "stateMutability": "payable",
      "type": "function"
    },
    {
      "inputs": [],
      "name": "orderCounter",
      "outputs": [
        {
          "internalType": "uint256",
          "name": "",
          "type": "uint256"
        }
      ],
      "stateMutability": "view",
      "type": "function"
    },
    {
      "inputs": [
        {
          "internalType": "uint256",
          "name": "_adId",
          "type": "uint256"
        }
      ],
      "name": "withdrawFunds",
      "outputs": [],
      "stateMutability": "payable",
      "type": "function"
    },
    {
      "inputs": [],
      "name": "wngnAddress",
      "outputs": [
        {
          "internalType": "address",
          "name": "",
          "type": "address"
        }
      ],
      "stateMutability": "view",
      "type": "function"
    }
  ],
  "bytecode": "0x6080604052600060015560006002553480156200001b57600080fd5b5060405162001e6138038062001e618339818101604052810190620000419190620000f2565b806000806101000a81548173ffffffffffffffffffffffffffffffffffffffff021916908373ffffffffffffffffffffffffffffffffffffffff1602179055505062000124565b600080fd5b600073ffffffffffffffffffffffffffffffffffffffff82169050919050565b6000620000ba826200008d565b9050919050565b620000cc81620000ad565b8114620000d857600080fd5b50565b600081519050620000ec81620000c1565b92915050565b6000602082840312156200010b576200010a62000088565b5b60006200011b84828501620000db565b91505092915050565b611d2d80620001346000396000f3fe6080604052600436106100705760003560e01c8063331ce52b1161004e578063331ce52b146100fe57806380067d4a14610129578063a59940ea14610159578063b789bf521461017557610070565b806311a7a4c014610075578063155dd5ee146100b757806325777403146100d3575b600080fd5b34801561008157600080fd5b5061009c60048036038101906100979190611139565b6101a0565b6040516100ae9695949392919061122d565b60405180910390f35b6100d160048036038101906100cc9190611139565b610229565b005b3480156100df57600080fd5b506100e861051b565b6040516100f5919061128e565b60405180910390f35b34801561010a57600080fd5b5061011361053f565b60405161012091906112a9565b60405180910390f35b610143600480360381019061013e9190611315565b610545565b60405161015091906112a9565b60405180910390f35b610173600480360381019061016e9190611390565b6108bf565b005b34801561018157600080fd5b5061018a610e28565b60405161019791906112a9565b60405180910390f35b60036020528060005260406000206000915090508060000154908060010160009054906101000a900460ff16908060010160019054906101000a900473ffffffffffffffffffffffffffffffffffffffff16908060020160009054906101000a900473ffffffffffffffffffffffffffffffffffffffff16908060030154908060040154905086565b600060036000838152602001908152602001600020905042816004015410610286576040517f08c379a000000000000000000000000000000000000000000000000000000000815260040161027d9061142d565b60405180910390fd5b60008160030154116102cd576040517f08c379a00000000000000000000000000000000000000000000000000000000081526004016102c4906114bf565b60405180910390fd5b8060020160009054906101000a900473ffffffffffffffffffffffffffffffffffffffff1673ffffffffffffffffffffffffffffffffffffffff163373ffffffffffffffffffffffffffffffffffffffff161461035f576040517f08c379a000000000000000000000000000000000000000000000000000000000815260040161035690611551565b60405180910390fd5b600080600181111561037457610373611175565b5b8260010160009054906101000a900460ff16600181111561039857610397611175565b5b146103c7578160010160019054906101000a900473ffffffffffffffffffffffffffffffffffffffff166103e9565b60008054906101000a900473ffffffffffffffffffffffffffffffffffffffff165b90508073ffffffffffffffffffffffffffffffffffffffff1663095ea7b33084600301546040518363ffffffff1660e01b815260040161042a929190611571565b6020604051808303816000875af1158015610449573d6000803e3d6000fd5b505050506040513d601f19601f8201168201806040525081019061046d91906115d2565b61047657600080fd5b6104aa81308460020160009054906101000a900473ffffffffffffffffffffffffffffffffffffffff168560030154610e2e565b60008260030181905550827ff3b5906e5672f3e524854103bcafbbdba80dbdfeca2c35e116127b1060a6831883600301548460020160009054906101000a900473ffffffffffffffffffffffffffffffffffffffff1660405161050e9291906115ff565b60405180910390a2505050565b60008054906101000a900473ffffffffffffffffffffffffffffffffffffffff1681565b60015481565b6000808611610589576040517f08c379a00000000000000000000000000000000000000000000000000000000081526004016105809061169a565b60405180910390fd5b6103844261059791906116e9565b82116105d8576040517f08c379a00000000000000000000000000000000000000000000000000000000081526004016105cf9061178f565b60405180910390fd5b6040518060c001604052808781526020018660018111156105fc576105fb611175565b5b81526020018573ffffffffffffffffffffffffffffffffffffffff1681526020013373ffffffffffffffffffffffffffffffffffffffff168152602001848152602001838152506003600060015481526020019081526020016000206000820151816000015560208201518160010160006101000a81548160ff0219169083600181111561068d5761068c611175565b5b021790555060408201518160010160016101000a81548173ffffffffffffffffffffffffffffffffffffffff021916908373ffffffffffffffffffffffffffffffffffffffff16021790555060608201518160020160006101000a81548173ffffffffffffffffffffffffffffffffffffffff021916908373ffffffffffffffffffffffffffffffffffffffff1602179055506080820151816003015560a08201518160040155905050600080600181111561074c5761074b611175565b5b86600181111561075f5761075e611175565b5b1461076a578461078c565b60008054906101000a900473ffffffffffffffffffffffffffffffffffffffff165b9050838173ffffffffffffffffffffffffffffffffffffffff1663dd62ed3e33306040518363ffffffff1660e01b81526004016107ca9291906117af565b602060405180830381865afa1580156107e7573d6000803e3d6000fd5b505050506040513d601f19601f8201168201806040525081019061080b91906117ed565b101561084c576040517f08c379a000000000000000000000000000000000000000000000000000000000815260040161084390611866565b60405180910390fd5b61085881333087610e2e565b6001547f60ddeb74316e0e5874cd157e0a6e16ffd5214467e5facf6c4addbceb8c5d09da88888888883360405161089496959493929190611886565b60405180910390a2600160008154809291906108af906118e7565b9190505591505095945050505050565b6000600360008481526020019081526020016000209050428160040154101561091d576040517f08c379a00000000000000000000000000000000000000000000000000000000081526004016109149061197b565b60405180910390fd5b8060030154821115610964576040517f08c379a000000000000000000000000000000000000000000000000000000000815260040161095b90611a0d565b60405180910390fd5b6000600181111561097857610977611175565b5b8160010160009054906101000a900460ff16600181111561099c5761099b611175565b5b03610bb45760008160010160019054906101000a900473ffffffffffffffffffffffffffffffffffffffff169050600060648360000154856109de9190611a5c565b6109e89190611a5c565b9050808273ffffffffffffffffffffffffffffffffffffffff1663dd62ed3e33306040518363ffffffff1660e01b8152600401610a269291906117af565b602060405180830381865afa158015610a43573d6000803e3d6000fd5b505050506040513d601f19601f82011682018060405250810190610a6791906117ed565b1015610aa8576040517f08c379a0000000000000000000000000000000000000000000000000000000008152600401610a9f90611aff565b60405180910390fd5b610ad882338560020160009054906101000a900473ffffffffffffffffffffffffffffffffffffffff1684610e2e565b60008060009054906101000a900473ffffffffffffffffffffffffffffffffffffffff1690508073ffffffffffffffffffffffffffffffffffffffff1663095ea7b330876040518363ffffffff1660e01b8152600401610b39929190611571565b6020604051808303816000875af1158015610b58573d6000803e3d6000fd5b505050506040513d601f19601f82011682018060405250810190610b7c91906115d2565b610b8557600080fd5b610b9181303388610e2e565b84846003016000828254610ba59190611b1f565b92505081905550505050610dc3565b60008060009054906101000a900473ffffffffffffffffffffffffffffffffffffffff16905060006064836000015485610bee9190611b53565b610bf89190611a5c565b9050808273ffffffffffffffffffffffffffffffffffffffff1663dd62ed3e33306040518363ffffffff1660e01b8152600401610c369291906117af565b602060405180830381865afa158015610c53573d6000803e3d6000fd5b505050506040513d601f19601f82011682018060405250810190610c7791906117ed565b1015610cb8576040517f08c379a0000000000000000000000000000000000000000000000000000000008152600401610caf90611be1565b60405180910390fd5b610ce882338560020160009054906101000a900473ffffffffffffffffffffffffffffffffffffffff1684610e2e565b60008360010160019054906101000a900473ffffffffffffffffffffffffffffffffffffffff1690508073ffffffffffffffffffffffffffffffffffffffff1663095ea7b330876040518363ffffffff1660e01b8152600401610d4c929190611571565b6020604051808303816000875af1158015610d6b573d6000803e3d6000fd5b505050506040513d601f19601f82011682018060405250810190610d8f91906115d2565b610d9857600080fd5b610da481303388610e2e565b84846003016000828254610db89190611b1f565b925050819055505050505b827ff5d2d82f00e443fa75ead090d2c933b44bae79f7ff28153f4d5860e5e1fcd21183338460020160009054906101000a900473ffffffffffffffffffffffffffffffffffffffff16604051610e1b93929190611c01565b60405180910390a2505050565b60025481565b610eaa848573ffffffffffffffffffffffffffffffffffffffff166323b872dd868686604051602401610e6393929190611c38565b604051602081830303815290604052915060e01b6020820180517bffffffffffffffffffffffffffffffffffffffffffffffffffffffff8381831617835250505050610eb0565b50505050565b6000610edb828473ffffffffffffffffffffffffffffffffffffffff16610f4790919063ffffffff16565b90506000815114158015610f00575080806020019051810190610efe91906115d2565b155b15610f4257826040517f5274afe7000000000000000000000000000000000000000000000000000000008152600401610f39919061128e565b60405180910390fd5b505050565b6060610f5583836000610f5d565b905092915050565b606081471015610fa457306040517fcd786059000000000000000000000000000000000000000000000000000000008152600401610f9b919061128e565b60405180910390fd5b6000808573ffffffffffffffffffffffffffffffffffffffff168486604051610fcd9190611ce0565b60006040518083038185875af1925050503d806000811461100a576040519150601f19603f3d011682016040523d82523d6000602084013e61100f565b606091505b509150915061101f86838361102a565b925050509392505050565b60608261103f5761103a826110b9565b6110b1565b60008251148015611067575060008473ffffffffffffffffffffffffffffffffffffffff163b145b156110a957836040517f9996b3150000000000000000000000000000000000000000000000000000000081526004016110a0919061128e565b60405180910390fd5b8190506110b2565b5b9392505050565b6000815111156110cc5780518082602001fd5b6040517f1425ea4200000000000000000000000000000000000000000000000000000000815260040160405180910390fd5b600080fd5b6000819050919050565b61111681611103565b811461112157600080fd5b50565b6000813590506111338161110d565b92915050565b60006020828403121561114f5761114e6110fe565b5b600061115d84828501611124565b91505092915050565b61116f81611103565b82525050565b7f4e487b7100000000000000000000000000000000000000000000000000000000600052602160045260246000fd5b600281106111b5576111b4611175565b5b50565b60008190506111c6826111a4565b919050565b60006111d6826111b8565b9050919050565b6111e6816111cb565b82525050565b600073ffffffffffffffffffffffffffffffffffffffff82169050919050565b6000611217826111ec565b9050919050565b6112278161120c565b82525050565b600060c0820190506112426000830189611166565b61124f60208301886111dd565b61125c604083018761121e565b611269606083018661121e565b6112766080830185611166565b61128360a0830184611166565b979650505050505050565b60006020820190506112a3600083018461121e565b92915050565b60006020820190506112be6000830184611166565b92915050565b600281106112d157600080fd5b50565b6000813590506112e3816112c4565b92915050565b6112f28161120c565b81146112fd57600080fd5b50565b60008135905061130f816112e9565b92915050565b600080600080600060a08688031215611331576113306110fe565b5b600061133f88828901611124565b9550506020611350888289016112d4565b945050604061136188828901611300565b935050606061137288828901611124565b925050608061138388828901611124565b9150509295509295909350565b600080604083850312156113a7576113a66110fe565b5b60006113b585828601611124565b92505060206113c685828601611124565b9150509250929050565b600082825260208201905092915050565b7f6164206973207374696c6c2076616c6964000000000000000000000000000000600082015250565b60006114176011836113d0565b9150611422826113e1565b602082019050919050565b600060208201905081810360008301526114468161140a565b9050919050565b7f7175616e74697479206d7573742062652067726561746572207468616e207a6560008201527f726f000000000000000000000000000000000000000000000000000000000000602082015250565b60006114a96022836113d0565b91506114b48261144d565b604082019050919050565b600060208201905081810360008301526114d88161149c565b9050919050565b7f6f6e6c792061642063726561746f722063616e2077697468647261772066756e60008201527f64732066726f6d20697400000000000000000000000000000000000000000000602082015250565b600061153b602a836113d0565b9150611546826114df565b604082019050919050565b6000602082019050818103600083015261156a8161152e565b9050919050565b6000604082019050611586600083018561121e565b6115936020830184611166565b9392505050565b60008115159050919050565b6115af8161159a565b81146115ba57600080fd5b50565b6000815190506115cc816115a6565b92915050565b6000602082840312156115e8576115e76110fe565b5b60006115f6848285016115bd565b91505092915050565b60006040820190506116146000830185611166565b611621602083018461121e565b9392505050565b7f7072696365206d7573742062652073657420746f20612076616c75652067726560008201527f61746572207468616e207a65726f000000000000000000000000000000000000602082015250565b6000611684602e836113d0565b915061168f82611628565b604082019050919050565b600060208201905081810360008301526116b381611677565b9050919050565b7f4e487b7100000000000000000000000000000000000000000000000000000000600052601160045260246000fd5b60006116f482611103565b91506116ff83611103565b9250828201905080821115611717576117166116ba565b5b92915050565b7f616473206d7573742062652076616c696420666f72206174206c65617374203160008201527f35206d696e757465730000000000000000000000000000000000000000000000602082015250565b60006117796029836113d0565b91506117848261171d565b604082019050919050565b600060208201905081810360008301526117a88161176c565b9050919050565b60006040820190506117c4600083018561121e565b6117d1602083018461121e565b9392505050565b6000815190506117e78161110d565b92915050565b600060208284031215611803576118026110fe565b5b6000611811848285016117d8565b91505092915050565b7f696e73756666696369656e7420616c6c6f77616e63652070726f766964656400600082015250565b6000611850601f836113d0565b915061185b8261181a565b602082019050919050565b6000602082019050818103600083015261187f81611843565b9050919050565b600060c08201905061189b6000830189611166565b6118a860208301886111dd565b6118b5604083018761121e565b6118c26060830186611166565b6118cf6080830185611166565b6118dc60a083018461121e565b979650505050505050565b60006118f282611103565b91507fffffffffffffffffffffffffffffffffffffffffffffffffffffffffffffffff8203611924576119236116ba565b5b600182019050919050565b7f4164206861732065787069726564000000000000000000000000000000000000600082015250565b6000611965600e836113d0565b91506119708261192f565b602082019050919050565b6000602082019050818103600083015261199481611958565b9050919050565b7f416d6f756e742065786365656473207468652072656d61696e696e672071756160008201527f6e74697479000000000000000000000000000000000000000000000000000000602082015250565b60006119f76025836113d0565b9150611a028261199b565b604082019050919050565b60006020820190508181036000830152611a26816119ea565b9050919050565b7f4e487b7100000000000000000000000000000000000000000000000000000000600052601260045260246000fd5b6000611a6782611103565b9150611a7283611103565b925082611a8257611a81611a2d565b5b828204905092915050565b7f496e73756666696369656e7420746f6b656e20616c6c6f77616e63652070726f60008201527f7669646564000000000000000000000000000000000000000000000000000000602082015250565b6000611ae96025836113d0565b9150611af482611a8d565b604082019050919050565b60006020820190508181036000830152611b1881611adc565b9050919050565b6000611b2a82611103565b9150611b3583611103565b9250828203905081811115611b4d57611b4c6116ba565b5b92915050565b6000611b5e82611103565b9150611b6983611103565b9250828202611b7781611103565b91508282048414831517611b8e57611b8d6116ba565b5b5092915050565b7f496e73756666696369656e7420616c6c6f77616e63652070726f766964656400600082015250565b6000611bcb601f836113d0565b9150611bd682611b95565b602082019050919050565b60006020820190508181036000830152611bfa81611bbe565b9050919050565b6000606082019050611c166000830186611166565b611c23602083018561121e565b611c30604083018461121e565b949350505050565b6000606082019050611c4d600083018661121e565b611c5a602083018561121e565b611c676040830184611166565b949350505050565b600081519050919050565b600081905092915050565b60005b83811015611ca3578082015181840152602081019050611c88565b60008484015250505050565b6000611cba82611c6f565b611cc48185611c7a565b9350611cd4818560208601611c85565b80840191505092915050565b6000611cec8284611caf565b91508190509291505056fea264697066735822122013e5b35f65c736bb8a5dba3cd23aac6cca6272a694b8e413895e632e9063d45164736f6c63430008180033",
  "linkReferences": {},
  "deployedLinkReferences": {}
}